{
  "contractName": "NFTRewards",
  "abi": [
    {
      "inputs": [],
      "stateMutability": "nonpayable",
      "type": "constructor"
    },
    {
      "anonymous": false,
      "inputs": [
        {
          "indexed": true,
          "internalType": "address",
          "name": "owner",
          "type": "address"
        },
        {
          "indexed": true,
          "internalType": "address",
          "name": "approved",
          "type": "address"
        },
        {
          "indexed": true,
          "internalType": "uint256",
          "name": "tokenId",
          "type": "uint256"
        }
      ],
      "name": "Approval",
      "type": "event"
    },
    {
      "anonymous": false,
      "inputs": [
        {
          "indexed": true,
          "internalType": "address",
          "name": "owner",
          "type": "address"
        },
        {
          "indexed": true,
          "internalType": "address",
          "name": "operator",
          "type": "address"
        },
        {
          "indexed": false,
          "internalType": "bool",
          "name": "approved",
          "type": "bool"
        }
      ],
      "name": "ApprovalForAll",
      "type": "event"
    },
    {
      "anonymous": false,
      "inputs": [
        {
          "indexed": true,
          "internalType": "bytes32",
          "name": "role",
          "type": "bytes32"
        },
        {
          "indexed": true,
          "internalType": "bytes32",
          "name": "previousAdminRole",
          "type": "bytes32"
        },
        {
          "indexed": true,
          "internalType": "bytes32",
          "name": "newAdminRole",
          "type": "bytes32"
        }
      ],
      "name": "RoleAdminChanged",
      "type": "event"
    },
    {
      "anonymous": false,
      "inputs": [
        {
          "indexed": true,
          "internalType": "bytes32",
          "name": "role",
          "type": "bytes32"
        },
        {
          "indexed": true,
          "internalType": "address",
          "name": "account",
          "type": "address"
        },
        {
          "indexed": true,
          "internalType": "address",
          "name": "sender",
          "type": "address"
        }
      ],
      "name": "RoleGranted",
      "type": "event"
    },
    {
      "anonymous": false,
      "inputs": [
        {
          "indexed": true,
          "internalType": "bytes32",
          "name": "role",
          "type": "bytes32"
        },
        {
          "indexed": true,
          "internalType": "address",
          "name": "account",
          "type": "address"
        },
        {
          "indexed": true,
          "internalType": "address",
          "name": "sender",
          "type": "address"
        }
      ],
      "name": "RoleRevoked",
      "type": "event"
    },
    {
      "anonymous": false,
      "inputs": [
        {
          "indexed": true,
          "internalType": "address",
          "name": "from",
          "type": "address"
        },
        {
          "indexed": true,
          "internalType": "address",
          "name": "to",
          "type": "address"
        },
        {
          "indexed": true,
          "internalType": "uint256",
          "name": "tokenId",
          "type": "uint256"
        }
      ],
      "name": "Transfer",
      "type": "event"
    },
    {
      "inputs": [],
      "name": "DEFAULT_ADMIN_ROLE",
      "outputs": [
        {
          "internalType": "bytes32",
          "name": "",
          "type": "bytes32"
        }
      ],
      "stateMutability": "view",
      "type": "function"
    },
    {
      "inputs": [],
      "name": "Validator",
      "outputs": [
        {
          "internalType": "address",
          "name": "",
          "type": "address"
        }
      ],
      "stateMutability": "view",
      "type": "function"
    },
    {
      "inputs": [
        {
          "internalType": "address",
          "name": "to",
          "type": "address"
        },
        {
          "internalType": "uint256",
          "name": "tokenId",
          "type": "uint256"
        }
      ],
      "name": "approve",
      "outputs": [],
      "stateMutability": "nonpayable",
      "type": "function"
    },
    {
      "inputs": [
        {
          "internalType": "address",
          "name": "owner",
          "type": "address"
        }
      ],
      "name": "balanceOf",
      "outputs": [
        {
          "internalType": "uint256",
          "name": "",
          "type": "uint256"
        }
      ],
      "stateMutability": "view",
      "type": "function"
    },
    {
      "inputs": [
        {
          "internalType": "address",
          "name": "",
          "type": "address"
        }
      ],
      "name": "deposit",
      "outputs": [
        {
          "internalType": "uint256",
          "name": "",
          "type": "uint256"
        }
      ],
      "stateMutability": "view",
      "type": "function"
    },
    {
      "inputs": [
        {
          "internalType": "uint256",
          "name": "tokenId",
          "type": "uint256"
        }
      ],
      "name": "getApproved",
      "outputs": [
        {
          "internalType": "address",
          "name": "",
          "type": "address"
        }
      ],
      "stateMutability": "view",
      "type": "function"
    },
    {
      "inputs": [
        {
          "internalType": "bytes32",
          "name": "role",
          "type": "bytes32"
        }
      ],
      "name": "getRoleAdmin",
      "outputs": [
        {
          "internalType": "bytes32",
          "name": "",
          "type": "bytes32"
        }
      ],
      "stateMutability": "view",
      "type": "function"
    },
    {
      "inputs": [
        {
          "internalType": "bytes32",
          "name": "role",
          "type": "bytes32"
        },
        {
          "internalType": "address",
          "name": "account",
          "type": "address"
        }
      ],
      "name": "grantRole",
      "outputs": [],
      "stateMutability": "nonpayable",
      "type": "function"
    },
    {
      "inputs": [
        {
          "internalType": "bytes32",
          "name": "role",
          "type": "bytes32"
        },
        {
          "internalType": "address",
          "name": "account",
          "type": "address"
        }
      ],
      "name": "hasRole",
      "outputs": [
        {
          "internalType": "bool",
          "name": "",
          "type": "bool"
        }
      ],
      "stateMutability": "view",
      "type": "function"
    },
    {
      "inputs": [
        {
          "internalType": "address",
          "name": "owner",
          "type": "address"
        },
        {
          "internalType": "address",
          "name": "operator",
          "type": "address"
        }
      ],
      "name": "isApprovedForAll",
      "outputs": [
        {
          "internalType": "bool",
          "name": "",
          "type": "bool"
        }
      ],
      "stateMutability": "view",
      "type": "function"
    },
    {
      "inputs": [],
      "name": "name",
      "outputs": [
        {
          "internalType": "string",
          "name": "",
          "type": "string"
        }
      ],
      "stateMutability": "view",
      "type": "function"
    },
    {
      "inputs": [
        {
          "internalType": "uint256",
          "name": "",
          "type": "uint256"
        }
      ],
      "name": "nfts",
      "outputs": [
        {
          "internalType": "uint256",
          "name": "id",
          "type": "uint256"
        },
        {
          "internalType": "string",
          "name": "ipfsHash",
          "type": "string"
        },
        {
          "internalType": "address",
          "name": "owner",
          "type": "address"
        },
        {
          "internalType": "bool",
          "name": "authenticate",
          "type": "bool"
        },
        {
          "internalType": "bool",
          "name": "collateralLocked",
          "type": "bool"
        },
        {
          "internalType": "bool",
          "name": "liquidityRemoved",
          "type": "bool"
        },
        {
          "internalType": "bool",
          "name": "reedemDiamond",
          "type": "bool"
        },
        {
          "internalType": "bool",
          "name": "nftLocked",
          "type": "bool"
        }
      ],
      "stateMutability": "view",
      "type": "function"
    },
    {
      "inputs": [
        {
          "internalType": "uint256",
          "name": "tokenId",
          "type": "uint256"
        }
      ],
      "name": "ownerOf",
      "outputs": [
        {
          "internalType": "address",
          "name": "",
          "type": "address"
        }
      ],
      "stateMutability": "view",
      "type": "function"
    },
    {
      "inputs": [
        {
          "internalType": "bytes32",
          "name": "role",
          "type": "bytes32"
        },
        {
          "internalType": "address",
          "name": "account",
          "type": "address"
        }
      ],
      "name": "renounceRole",
      "outputs": [],
      "stateMutability": "nonpayable",
      "type": "function"
    },
    {
      "inputs": [
        {
          "internalType": "bytes32",
          "name": "role",
          "type": "bytes32"
        },
        {
          "internalType": "address",
          "name": "account",
          "type": "address"
        }
      ],
      "name": "revokeRole",
      "outputs": [],
      "stateMutability": "nonpayable",
      "type": "function"
    },
    {
      "inputs": [
        {
          "internalType": "address",
          "name": "from",
          "type": "address"
        },
        {
          "internalType": "address",
          "name": "to",
          "type": "address"
        },
        {
          "internalType": "uint256",
          "name": "tokenId",
          "type": "uint256"
        }
      ],
      "name": "safeTransferFrom",
      "outputs": [],
      "stateMutability": "nonpayable",
      "type": "function"
    },
    {
      "inputs": [
        {
          "internalType": "address",
          "name": "from",
          "type": "address"
        },
        {
          "internalType": "address",
          "name": "to",
          "type": "address"
        },
        {
          "internalType": "uint256",
          "name": "tokenId",
          "type": "uint256"
        },
        {
          "internalType": "bytes",
          "name": "_data",
          "type": "bytes"
        }
      ],
      "name": "safeTransferFrom",
      "outputs": [],
      "stateMutability": "nonpayable",
      "type": "function"
    },
    {
      "inputs": [
        {
          "internalType": "address",
          "name": "operator",
          "type": "address"
        },
        {
          "internalType": "bool",
          "name": "approved",
          "type": "bool"
        }
      ],
      "name": "setApprovalForAll",
      "outputs": [],
      "stateMutability": "nonpayable",
      "type": "function"
    },
    {
      "inputs": [],
      "name": "symbol",
      "outputs": [
        {
          "internalType": "string",
          "name": "",
          "type": "string"
        }
      ],
      "stateMutability": "view",
      "type": "function"
    },
    {
      "inputs": [],
      "name": "tokenCounter",
      "outputs": [
        {
          "internalType": "uint256",
          "name": "",
          "type": "uint256"
        }
      ],
      "stateMutability": "view",
      "type": "function"
    },
    {
      "inputs": [
        {
          "internalType": "uint256",
          "name": "tokenId",
          "type": "uint256"
        }
      ],
      "name": "tokenURI",
      "outputs": [
        {
          "internalType": "string",
          "name": "",
          "type": "string"
        }
      ],
      "stateMutability": "view",
      "type": "function"
    },
    {
      "inputs": [
        {
          "internalType": "address",
          "name": "from",
          "type": "address"
        },
        {
          "internalType": "address",
          "name": "to",
          "type": "address"
        },
        {
          "internalType": "uint256",
          "name": "tokenId",
          "type": "uint256"
        }
      ],
      "name": "transferFrom",
      "outputs": [],
      "stateMutability": "nonpayable",
      "type": "function"
    },
    {
      "inputs": [
        {
          "internalType": "string",
          "name": "tokenURI",
          "type": "string"
        }
      ],
      "name": "createCollectible",
      "outputs": [
        {
          "internalType": "uint256",
          "name": "",
          "type": "uint256"
        }
      ],
      "stateMutability": "nonpayable",
      "type": "function"
    },
    {
      "inputs": [
        {
          "internalType": "address",
          "name": "",
          "type": "address"
        },
        {
          "internalType": "address",
          "name": "",
          "type": "address"
        },
        {
          "internalType": "uint256",
          "name": "",
          "type": "uint256"
        },
        {
          "internalType": "bytes",
          "name": "",
          "type": "bytes"
        }
      ],
      "name": "onERC721Received",
      "outputs": [
        {
          "internalType": "bytes4",
          "name": "",
          "type": "bytes4"
        }
      ],
      "stateMutability": "nonpayable",
      "type": "function"
    },
    {
      "inputs": [
        {
          "internalType": "bytes4",
          "name": "interfaceId",
          "type": "bytes4"
        }
      ],
      "name": "supportsInterface",
      "outputs": [
        {
          "internalType": "bool",
          "name": "",
          "type": "bool"
        }
      ],
      "stateMutability": "view",
      "type": "function"
    }
  ],
  "bytecode": "0x60806040523480156200001157600080fd5b506040518060400160405280600781526020017f4469616d6f6e64000000000000000000000000000000000000000000000000008152506040518060400160405280600381526020017f4e46540000000000000000000000000000000000000000000000000000000000815250816000908051906020019062000096929190620002a0565b508060019080519060200190620000af929190620002a0565b5050506000600881905550620000de6000801b620000d26200012560201b60201c565b6200012d60201b60201c565b33600960006101000a81548173ffffffffffffffffffffffffffffffffffffffff021916908373ffffffffffffffffffffffffffffffffffffffff160217905550620003b5565b600033905090565b6200013f82826200014360201b60201c565b5050565b6200015582826200023560201b60201c565b620002315760016007600084815260200190815260200160002060000160008373ffffffffffffffffffffffffffffffffffffffff1673ffffffffffffffffffffffffffffffffffffffff16815260200190815260200160002060006101000a81548160ff021916908315150217905550620001d66200012560201b60201c565b73ffffffffffffffffffffffffffffffffffffffff168173ffffffffffffffffffffffffffffffffffffffff16837f2f8788117e7eff1d82e926ec794901d17c78024a50270940304540a733656f0d60405160405180910390a45b5050565b60006007600084815260200190815260200160002060000160008373ffffffffffffffffffffffffffffffffffffffff1673ffffffffffffffffffffffffffffffffffffffff16815260200190815260200160002060009054906101000a900460ff16905092915050565b828054620002ae9062000350565b90600052602060002090601f016020900481019282620002d257600085556200031e565b82601f10620002ed57805160ff19168380011785556200031e565b828001600101855582156200031e579182015b828111156200031d57825182559160200191906001019062000300565b5b5090506200032d919062000331565b5090565b5b808211156200034c57600081600090555060010162000332565b5090565b600060028204905060018216806200036957607f821691505b6020821081141562000380576200037f62000386565b5b50919050565b7f4e487b7100000000000000000000000000000000000000000000000000000000600052602260045260246000fd5b613ae980620003c56000396000f3fe608060405234801561001057600080fd5b50600436106101735760003560e01c80636352211e116100de578063a22cb46511610097578063d082e38111610071578063d082e3811461049b578063d547741f146104b9578063e985e9c5146104d5578063f340fa011461050557610173565b8063a22cb46514610433578063b88d4fde1461044f578063c87b56dd1461046b57610173565b80636352211e146103495780636d43ecc61461037957806370a082311461039757806391d14854146103c757806395d89b41146103f7578063a217fddf1461041557610173565b8063248a9ca311610130578063248a9ca31461025e578063265aa6211461028e5780632f2ff15d146102c557806331f1f3c3146102e157806336568abe1461031157806342842e0e1461032d57610173565b806301ffc9a71461017857806306fdde03146101a8578063081812fc146101c6578063095ea7b3146101f6578063150b7a021461021257806323b872dd14610242575b600080fd5b610192600480360381019061018d919061291e565b610535565b60405161019f91906132a1565b60405180910390f35b6101b0610547565b6040516101bd91906132f2565b60405180910390f35b6101e060048036038101906101db91906129b1565b6105d9565b6040516101ed919061323a565b60405180910390f35b610210600480360381019061020b919061287d565b61065e565b005b61022c600480360381019061022791906127c6565b610776565b60405161023991906132d7565b60405180910390f35b61025c60048036038101906102579190612777565b61078a565b005b610278600480360381019061027391906128b9565b6107ea565b60405161028591906132bc565b60405180910390f35b6102a860048036038101906102a391906129b1565b61080a565b6040516102bc98979695949392919061356f565b60405180910390f35b6102df60048036038101906102da91906128e2565b61093b565b005b6102fb60048036038101906102f69190612970565b610964565b6040516103089190613554565b60405180910390f35b61032b600480360381019061032691906128e2565b610b22565b005b61034760048036038101906103429190612777565b610ba5565b005b610363600480360381019061035e91906129b1565b610bc5565b604051610370919061323a565b60405180910390f35b610381610c77565b60405161038e919061323a565b60405180910390f35b6103b160048036038101906103ac9190612712565b610c9d565b6040516103be9190613554565b60405180910390f35b6103e160048036038101906103dc91906128e2565b610d55565b6040516103ee91906132a1565b60405180910390f35b6103ff610dc0565b60405161040c91906132f2565b60405180910390f35b61041d610e52565b60405161042a91906132bc565b60405180910390f35b61044d60048036038101906104489190612841565b610e59565b005b610469600480360381019061046491906127c6565b610fda565b005b610485600480360381019061048091906129b1565b61103c565b60405161049291906132f2565b60405180910390f35b6104a361118e565b6040516104b09190613554565b60405180910390f35b6104d360048036038101906104ce91906128e2565b611194565b005b6104ef60048036038101906104ea919061273b565b6111bd565b6040516104fc91906132a1565b60405180910390f35b61051f600480360381019061051a9190612712565b611251565b60405161052c9190613554565b60405180910390f35b600061054082611269565b9050919050565b606060008054610556906138c7565b80601f0160208091040260200160405190810160405280929190818152602001828054610582906138c7565b80156105cf5780601f106105a4576101008083540402835291602001916105cf565b820191906000526020600020905b8154815290600101906020018083116105b257829003601f168201915b5050505050905090565b60006105e4826112e3565b610623576040517f08c379a000000000000000000000000000000000000000000000000000000000815260040161061a90613494565b60405180910390fd5b6004600083815260200190815260200160002060009054906101000a900473ffffffffffffffffffffffffffffffffffffffff169050919050565b600061066982610bc5565b90508073ffffffffffffffffffffffffffffffffffffffff168373ffffffffffffffffffffffffffffffffffffffff1614156106da576040517f08c379a00000000000000000000000000000000000000000000000000000000081526004016106d1906134f4565b60405180910390fd5b8073ffffffffffffffffffffffffffffffffffffffff166106f961134f565b73ffffffffffffffffffffffffffffffffffffffff16148061072857506107278161072261134f565b6111bd565b5b610767576040517f08c379a000000000000000000000000000000000000000000000000000000000815260040161075e906133d4565b60405180910390fd5b6107718383611357565b505050565b600063150b7a0260e01b9050949350505050565b61079b61079561134f565b82611410565b6107da576040517f08c379a00000000000000000000000000000000000000000000000000000000081526004016107d190613514565b60405180910390fd5b6107e58383836114ee565b505050565b600060076000838152602001908152602001600020600101549050919050565b600a602052806000526040600020600091509050806000015490806001018054610833906138c7565b80601f016020809104026020016040519081016040528092919081815260200182805461085f906138c7565b80156108ac5780601f10610881576101008083540402835291602001916108ac565b820191906000526020600020905b81548152906001019060200180831161088f57829003601f168201915b5050505050908060020160009054906101000a900473ffffffffffffffffffffffffffffffffffffffff16908060020160149054906101000a900460ff16908060020160159054906101000a900460ff16908060020160169054906101000a900460ff16908060020160179054906101000a900460ff16908060020160189054906101000a900460ff16905088565b610944826107ea565b6109558161095061134f565b61174a565b61095f83836117e7565b505050565b6000600160085461097591906136c8565b6008819055506000600854905061098c33826118c8565b61099681846118e6565b6040518061010001604052808281526020018481526020013373ffffffffffffffffffffffffffffffffffffffff16815260200160001515815260200160001515815260200160001515815260200160001515815260200160001515815250600a6000838152602001908152602001600020600082015181600001556020820151816001019080519060200190610a2e929190612521565b5060408201518160020160006101000a81548173ffffffffffffffffffffffffffffffffffffffff021916908373ffffffffffffffffffffffffffffffffffffffff16021790555060608201518160020160146101000a81548160ff02191690831515021790555060808201518160020160156101000a81548160ff02191690831515021790555060a08201518160020160166101000a81548160ff02191690831515021790555060c08201518160020160176101000a81548160ff02191690831515021790555060e08201518160020160186101000a81548160ff02191690831515021790555090505080915050919050565b610b2a61134f565b73ffffffffffffffffffffffffffffffffffffffff168173ffffffffffffffffffffffffffffffffffffffff1614610b97576040517f08c379a0000000000000000000000000000000000000000000000000000000008152600401610b8e90613534565b60405180910390fd5b610ba1828261195a565b5050565b610bc083838360405180602001604052806000815250610fda565b505050565b6000806002600084815260200190815260200160002060009054906101000a900473ffffffffffffffffffffffffffffffffffffffff169050600073ffffffffffffffffffffffffffffffffffffffff168173ffffffffffffffffffffffffffffffffffffffff161415610c6e576040517f08c379a0000000000000000000000000000000000000000000000000000000008152600401610c6590613414565b60405180910390fd5b80915050919050565b600960009054906101000a900473ffffffffffffffffffffffffffffffffffffffff1681565b60008073ffffffffffffffffffffffffffffffffffffffff168273ffffffffffffffffffffffffffffffffffffffff161415610d0e576040517f08c379a0000000000000000000000000000000000000000000000000000000008152600401610d05906133f4565b60405180910390fd5b600360008373ffffffffffffffffffffffffffffffffffffffff1673ffffffffffffffffffffffffffffffffffffffff168152602001908152602001600020549050919050565b60006007600084815260200190815260200160002060000160008373ffffffffffffffffffffffffffffffffffffffff1673ffffffffffffffffffffffffffffffffffffffff16815260200190815260200160002060009054906101000a900460ff16905092915050565b606060018054610dcf906138c7565b80601f0160208091040260200160405190810160405280929190818152602001828054610dfb906138c7565b8015610e485780601f10610e1d57610100808354040283529160200191610e48565b820191906000526020600020905b815481529060010190602001808311610e2b57829003601f168201915b5050505050905090565b6000801b81565b610e6161134f565b73ffffffffffffffffffffffffffffffffffffffff168273ffffffffffffffffffffffffffffffffffffffff161415610ecf576040517f08c379a0000000000000000000000000000000000000000000000000000000008152600401610ec690613394565b60405180910390fd5b8060056000610edc61134f565b73ffffffffffffffffffffffffffffffffffffffff1673ffffffffffffffffffffffffffffffffffffffff16815260200190815260200160002060008473ffffffffffffffffffffffffffffffffffffffff1673ffffffffffffffffffffffffffffffffffffffff16815260200190815260200160002060006101000a81548160ff0219169083151502179055508173ffffffffffffffffffffffffffffffffffffffff16610f8961134f565b73ffffffffffffffffffffffffffffffffffffffff167f17307eab39ab6107e8899845ad3d59bd9653f200f220920489ca2b5937696c3183604051610fce91906132a1565b60405180910390a35050565b610feb610fe561134f565b83611410565b61102a576040517f08c379a000000000000000000000000000000000000000000000000000000000815260040161102190613514565b60405180910390fd5b61103684848484611a3c565b50505050565b6060611047826112e3565b611086576040517f08c379a000000000000000000000000000000000000000000000000000000000815260040161107d90613474565b60405180910390fd5b60006006600084815260200190815260200160002080546110a6906138c7565b80601f01602080910402602001604051908101604052809291908181526020018280546110d2906138c7565b801561111f5780601f106110f45761010080835404028352916020019161111f565b820191906000526020600020905b81548152906001019060200180831161110257829003601f168201915b505050505090506000611130611a98565b9050600081511415611146578192505050611189565b60008251111561117b5780826040516020016111639291906131dc565b60405160208183030381529060405292505050611189565b61118484611aaf565b925050505b919050565b60085481565b61119d826107ea565b6111ae816111a961134f565b61174a565b6111b8838361195a565b505050565b6000600560008473ffffffffffffffffffffffffffffffffffffffff1673ffffffffffffffffffffffffffffffffffffffff16815260200190815260200160002060008373ffffffffffffffffffffffffffffffffffffffff1673ffffffffffffffffffffffffffffffffffffffff16815260200190815260200160002060009054906101000a900460ff16905092915050565b600b6020528060005260406000206000915090505481565b60007f7965db0b000000000000000000000000000000000000000000000000000000007bffffffffffffffffffffffffffffffffffffffffffffffffffffffff1916827bffffffffffffffffffffffffffffffffffffffffffffffffffffffff191614806112dc57506112db82611b56565b5b9050919050565b60008073ffffffffffffffffffffffffffffffffffffffff166002600084815260200190815260200160002060009054906101000a900473ffffffffffffffffffffffffffffffffffffffff1673ffffffffffffffffffffffffffffffffffffffff1614159050919050565b600033905090565b816004600083815260200190815260200160002060006101000a81548173ffffffffffffffffffffffffffffffffffffffff021916908373ffffffffffffffffffffffffffffffffffffffff160217905550808273ffffffffffffffffffffffffffffffffffffffff166113ca83610bc5565b73ffffffffffffffffffffffffffffffffffffffff167f8c5be1e5ebec7d5bd14f71427d1e84f3dd0314c0f7b2291e5b200ac8c7c3b92560405160405180910390a45050565b600061141b826112e3565b61145a576040517f08c379a0000000000000000000000000000000000000000000000000000000008152600401611451906133b4565b60405180910390fd5b600061146583610bc5565b90508073ffffffffffffffffffffffffffffffffffffffff168473ffffffffffffffffffffffffffffffffffffffff1614806114d457508373ffffffffffffffffffffffffffffffffffffffff166114bc846105d9565b73ffffffffffffffffffffffffffffffffffffffff16145b806114e557506114e481856111bd565b5b91505092915050565b8273ffffffffffffffffffffffffffffffffffffffff1661150e82610bc5565b73ffffffffffffffffffffffffffffffffffffffff1614611564576040517f08c379a000000000000000000000000000000000000000000000000000000000815260040161155b906134b4565b60405180910390fd5b600073ffffffffffffffffffffffffffffffffffffffff168273ffffffffffffffffffffffffffffffffffffffff1614156115d4576040517f08c379a00000000000000000000000000000000000000000000000000000000081526004016115cb90613374565b60405180910390fd5b6115df838383611c38565b6115ea600082611357565b6001600360008573ffffffffffffffffffffffffffffffffffffffff1673ffffffffffffffffffffffffffffffffffffffff168152602001908152602001600020600082825461163a91906137a9565b925050819055506001600360008473ffffffffffffffffffffffffffffffffffffffff1673ffffffffffffffffffffffffffffffffffffffff168152602001908152602001600020600082825461169191906136c8565b92505081905550816002600083815260200190815260200160002060006101000a81548173ffffffffffffffffffffffffffffffffffffffff021916908373ffffffffffffffffffffffffffffffffffffffff160217905550808273ffffffffffffffffffffffffffffffffffffffff168473ffffffffffffffffffffffffffffffffffffffff167fddf252ad1be2c89b69c2b068fc378daa952ba7f163c4a11628f55a4df523b3ef60405160405180910390a4505050565b6117548282610d55565b6117e3576117798173ffffffffffffffffffffffffffffffffffffffff166014611c3d565b6117878360001c6020611c3d565b604051602001611798929190613200565b6040516020818303038152906040526040517f08c379a00000000000000000000000000000000000000000000000000000000081526004016117da91906132f2565b60405180910390fd5b5050565b6117f18282610d55565b6118c45760016007600084815260200190815260200160002060000160008373ffffffffffffffffffffffffffffffffffffffff1673ffffffffffffffffffffffffffffffffffffffff16815260200190815260200160002060006101000a81548160ff02191690831515021790555061186961134f565b73ffffffffffffffffffffffffffffffffffffffff168173ffffffffffffffffffffffffffffffffffffffff16837f2f8788117e7eff1d82e926ec794901d17c78024a50270940304540a733656f0d60405160405180910390a45b5050565b6118e2828260405180602001604052806000815250611f37565b5050565b6118ef826112e3565b61192e576040517f08c379a000000000000000000000000000000000000000000000000000000000815260040161192590613434565b60405180910390fd5b80600660008481526020019081526020016000209080519060200190611955929190612521565b505050565b6119648282610d55565b15611a385760006007600084815260200190815260200160002060000160008373ffffffffffffffffffffffffffffffffffffffff1673ffffffffffffffffffffffffffffffffffffffff16815260200190815260200160002060006101000a81548160ff0219169083151502179055506119dd61134f565b73ffffffffffffffffffffffffffffffffffffffff168173ffffffffffffffffffffffffffffffffffffffff16837ff6391f5c32d9c69d2a47ea670b442974b53935d1edc7fd64eb21e047a839171b60405160405180910390a45b5050565b611a478484846114ee565b611a5384848484611f92565b611a92576040517f08c379a0000000000000000000000000000000000000000000000000000000008152600401611a8990613334565b60405180910390fd5b50505050565b606060405180602001604052806000815250905090565b6060611aba826112e3565b611af9576040517f08c379a0000000000000000000000000000000000000000000000000000000008152600401611af0906134d4565b60405180910390fd5b6000611b03611a98565b90506000815111611b235760405180602001604052806000815250611b4e565b80611b2d84612129565b604051602001611b3e9291906131dc565b6040516020818303038152906040525b915050919050565b60007f80ac58cd000000000000000000000000000000000000000000000000000000007bffffffffffffffffffffffffffffffffffffffffffffffffffffffff1916827bffffffffffffffffffffffffffffffffffffffffffffffffffffffff19161480611c2157507f5b5e139f000000000000000000000000000000000000000000000000000000007bffffffffffffffffffffffffffffffffffffffffffffffffffffffff1916827bffffffffffffffffffffffffffffffffffffffffffffffffffffffff1916145b80611c315750611c30826122d6565b5b9050919050565b505050565b606060006002836002611c50919061374f565b611c5a91906136c8565b67ffffffffffffffff811115611c99577f4e487b7100000000000000000000000000000000000000000000000000000000600052604160045260246000fd5b6040519080825280601f01601f191660200182016040528015611ccb5781602001600182028036833780820191505090505b5090507f300000000000000000000000000000000000000000000000000000000000000081600081518110611d29577f4e487b7100000000000000000000000000000000000000000000000000000000600052603260045260246000fd5b60200101907effffffffffffffffffffffffffffffffffffffffffffffffffffffffffffff1916908160001a9053507f780000000000000000000000000000000000000000000000000000000000000081600181518110611db3577f4e487b7100000000000000000000000000000000000000000000000000000000600052603260045260246000fd5b60200101907effffffffffffffffffffffffffffffffffffffffffffffffffffffffffffff1916908160001a90535060006001846002611df3919061374f565b611dfd91906136c8565b90505b6001811115611ee9577f3031323334353637383961626364656600000000000000000000000000000000600f861660108110611e65577f4e487b7100000000000000000000000000000000000000000000000000000000600052603260045260246000fd5b1a60f81b828281518110611ea2577f4e487b7100000000000000000000000000000000000000000000000000000000600052603260045260246000fd5b60200101907effffffffffffffffffffffffffffffffffffffffffffffffffffffffffffff1916908160001a905350600485901c945080611ee29061389d565b9050611e00565b5060008414611f2d576040517f08c379a0000000000000000000000000000000000000000000000000000000008152600401611f2490613314565b60405180910390fd5b8091505092915050565b611f418383612340565b611f4e6000848484611f92565b611f8d576040517f08c379a0000000000000000000000000000000000000000000000000000000008152600401611f8490613334565b60405180910390fd5b505050565b6000611fb38473ffffffffffffffffffffffffffffffffffffffff1661250e565b1561211c578373ffffffffffffffffffffffffffffffffffffffff1663150b7a02611fdc61134f565b8786866040518563ffffffff1660e01b8152600401611ffe9493929190613255565b602060405180830381600087803b15801561201857600080fd5b505af192505050801561204957506040513d601f19601f820116820180604052508101906120469190612947565b60015b6120cc573d8060008114612079576040519150601f19603f3d011682016040523d82523d6000602084013e61207e565b606091505b506000815114156120c4576040517f08c379a00000000000000000000000000000000000000000000000000000000081526004016120bb90613334565b60405180910390fd5b805181602001fd5b63150b7a0260e01b7bffffffffffffffffffffffffffffffffffffffffffffffffffffffff1916817bffffffffffffffffffffffffffffffffffffffffffffffffffffffff191614915050612121565b600190505b949350505050565b60606000821415612171576040518060400160405280600181526020017f300000000000000000000000000000000000000000000000000000000000000081525090506122d1565b600082905060005b600082146121a357808061218c906138f9565b915050600a8261219c919061371e565b9150612179565b60008167ffffffffffffffff8111156121e5577f4e487b7100000000000000000000000000000000000000000000000000000000600052604160045260246000fd5b6040519080825280601f01601f1916602001820160405280156122175781602001600182028036833780820191505090505b5090505b600085146122ca5760018261223091906137a9565b9150600a8561223f9190613942565b603061224b91906136c8565b60f81b818381518110612287577f4e487b7100000000000000000000000000000000000000000000000000000000600052603260045260246000fd5b60200101907effffffffffffffffffffffffffffffffffffffffffffffffffffffffffffff1916908160001a905350600a856122c3919061371e565b945061221b565b8093505050505b919050565b60007f01ffc9a7000000000000000000000000000000000000000000000000000000007bffffffffffffffffffffffffffffffffffffffffffffffffffffffff1916827bffffffffffffffffffffffffffffffffffffffffffffffffffffffff1916149050919050565b600073ffffffffffffffffffffffffffffffffffffffff168273ffffffffffffffffffffffffffffffffffffffff1614156123b0576040517f08c379a00000000000000000000000000000000000000000000000000000000081526004016123a790613454565b60405180910390fd5b6123b9816112e3565b156123f9576040517f08c379a00000000000000000000000000000000000000000000000000000000081526004016123f090613354565b60405180910390fd5b61240560008383611c38565b6001600360008473ffffffffffffffffffffffffffffffffffffffff1673ffffffffffffffffffffffffffffffffffffffff168152602001908152602001600020600082825461245591906136c8565b92505081905550816002600083815260200190815260200160002060006101000a81548173ffffffffffffffffffffffffffffffffffffffff021916908373ffffffffffffffffffffffffffffffffffffffff160217905550808273ffffffffffffffffffffffffffffffffffffffff16600073ffffffffffffffffffffffffffffffffffffffff167fddf252ad1be2c89b69c2b068fc378daa952ba7f163c4a11628f55a4df523b3ef60405160405180910390a45050565b600080823b905060008111915050919050565b82805461252d906138c7565b90600052602060002090601f01602090048101928261254f5760008555612596565b82601f1061256857805160ff1916838001178555612596565b82800160010185558215612596579182015b8281111561259557825182559160200191906001019061257a565b5b5090506125a391906125a7565b5090565b5b808211156125c05760008160009055506001016125a8565b5090565b60006125d76125d284613625565b6135f4565b9050828152602081018484840111156125ef57600080fd5b6125fa84828561385b565b509392505050565b600061261561261084613655565b6135f4565b90508281526020810184848401111561262d57600080fd5b61263884828561385b565b509392505050565b60008135905061264f81613a40565b92915050565b60008135905061266481613a57565b92915050565b60008135905061267981613a6e565b92915050565b60008135905061268e81613a85565b92915050565b6000815190506126a381613a85565b92915050565b600082601f8301126126ba57600080fd5b81356126ca8482602086016125c4565b91505092915050565b600082601f8301126126e457600080fd5b81356126f4848260208601612602565b91505092915050565b60008135905061270c81613a9c565b92915050565b60006020828403121561272457600080fd5b600061273284828501612640565b91505092915050565b6000806040838503121561274e57600080fd5b600061275c85828601612640565b925050602061276d85828601612640565b9150509250929050565b60008060006060848603121561278c57600080fd5b600061279a86828701612640565b93505060206127ab86828701612640565b92505060406127bc868287016126fd565b9150509250925092565b600080600080608085870312156127dc57600080fd5b60006127ea87828801612640565b94505060206127fb87828801612640565b935050604061280c878288016126fd565b925050606085013567ffffffffffffffff81111561282957600080fd5b612835878288016126a9565b91505092959194509250565b6000806040838503121561285457600080fd5b600061286285828601612640565b925050602061287385828601612655565b9150509250929050565b6000806040838503121561289057600080fd5b600061289e85828601612640565b92505060206128af858286016126fd565b9150509250929050565b6000602082840312156128cb57600080fd5b60006128d98482850161266a565b91505092915050565b600080604083850312156128f557600080fd5b60006129038582860161266a565b925050602061291485828601612640565b9150509250929050565b60006020828403121561293057600080fd5b600061293e8482850161267f565b91505092915050565b60006020828403121561295957600080fd5b600061296784828501612694565b91505092915050565b60006020828403121561298257600080fd5b600082013567ffffffffffffffff81111561299c57600080fd5b6129a8848285016126d3565b91505092915050565b6000602082840312156129c357600080fd5b60006129d1848285016126fd565b91505092915050565b6129e3816137dd565b82525050565b6129f2816137ef565b82525050565b612a01816137fb565b82525050565b612a1081613805565b82525050565b6000612a2182613685565b612a2b818561369b565b9350612a3b81856020860161386a565b612a4481613a2f565b840191505092915050565b6000612a5a82613690565b612a6481856136ac565b9350612a7481856020860161386a565b612a7d81613a2f565b840191505092915050565b6000612a9382613690565b612a9d81856136bd565b9350612aad81856020860161386a565b80840191505092915050565b6000612ac66020836136ac565b91507f537472696e67733a20686578206c656e67746820696e73756666696369656e746000830152602082019050919050565b6000612b066032836136ac565b91507f4552433732313a207472616e7366657220746f206e6f6e20455243373231526560008301527f63656976657220696d706c656d656e74657200000000000000000000000000006020830152604082019050919050565b6000612b6c601c836136ac565b91507f4552433732313a20746f6b656e20616c7265616479206d696e746564000000006000830152602082019050919050565b6000612bac6024836136ac565b91507f4552433732313a207472616e7366657220746f20746865207a65726f2061646460008301527f72657373000000000000000000000000000000000000000000000000000000006020830152604082019050919050565b6000612c126019836136ac565b91507f4552433732313a20617070726f766520746f2063616c6c6572000000000000006000830152602082019050919050565b6000612c52602c836136ac565b91507f4552433732313a206f70657261746f7220717565727920666f72206e6f6e657860008301527f697374656e7420746f6b656e00000000000000000000000000000000000000006020830152604082019050919050565b6000612cb86038836136ac565b91507f4552433732313a20617070726f76652063616c6c6572206973206e6f74206f7760008301527f6e6572206e6f7220617070726f76656420666f7220616c6c00000000000000006020830152604082019050919050565b6000612d1e602a836136ac565b91507f4552433732313a2062616c616e636520717565727920666f7220746865207a6560008301527f726f2061646472657373000000000000000000000000000000000000000000006020830152604082019050919050565b6000612d846029836136ac565b91507f4552433732313a206f776e657220717565727920666f72206e6f6e657869737460008301527f656e7420746f6b656e00000000000000000000000000000000000000000000006020830152604082019050919050565b6000612dea602e836136ac565b91507f45524337323155524953746f726167653a2055524920736574206f66206e6f6e60008301527f6578697374656e7420746f6b656e0000000000000000000000000000000000006020830152604082019050919050565b6000612e506020836136ac565b91507f4552433732313a206d696e7420746f20746865207a65726f20616464726573736000830152602082019050919050565b6000612e906031836136ac565b91507f45524337323155524953746f726167653a2055524920717565727920666f722060008301527f6e6f6e6578697374656e7420746f6b656e0000000000000000000000000000006020830152604082019050919050565b6000612ef6602c836136ac565b91507f4552433732313a20617070726f76656420717565727920666f72206e6f6e657860008301527f697374656e7420746f6b656e00000000000000000000000000000000000000006020830152604082019050919050565b6000612f5c6029836136ac565b91507f4552433732313a207472616e73666572206f6620746f6b656e2074686174206960008301527f73206e6f74206f776e00000000000000000000000000000000000000000000006020830152604082019050919050565b6000612fc2602f836136ac565b91507f4552433732314d657461646174613a2055524920717565727920666f72206e6f60008301527f6e6578697374656e7420746f6b656e00000000000000000000000000000000006020830152604082019050919050565b60006130286021836136ac565b91507f4552433732313a20617070726f76616c20746f2063757272656e74206f776e6560008301527f72000000000000000000000000000000000000000000000000000000000000006020830152604082019050919050565b600061308e6031836136ac565b91507f4552433732313a207472616e736665722063616c6c6572206973206e6f74206f60008301527f776e6572206e6f7220617070726f7665640000000000000000000000000000006020830152604082019050919050565b60006130f46017836136bd565b91507f416363657373436f6e74726f6c3a206163636f756e74200000000000000000006000830152601782019050919050565b60006131346011836136bd565b91507f206973206d697373696e6720726f6c65200000000000000000000000000000006000830152601182019050919050565b6000613174602f836136ac565b91507f416363657373436f6e74726f6c3a2063616e206f6e6c792072656e6f756e636560008301527f20726f6c657320666f722073656c6600000000000000000000000000000000006020830152604082019050919050565b6131d681613851565b82525050565b60006131e88285612a88565b91506131f48284612a88565b91508190509392505050565b600061320b826130e7565b91506132178285612a88565b915061322282613127565b915061322e8284612a88565b91508190509392505050565b600060208201905061324f60008301846129da565b92915050565b600060808201905061326a60008301876129da565b61327760208301866129da565b61328460408301856131cd565b81810360608301526132968184612a16565b905095945050505050565b60006020820190506132b660008301846129e9565b92915050565b60006020820190506132d160008301846129f8565b92915050565b60006020820190506132ec6000830184612a07565b92915050565b6000602082019050818103600083015261330c8184612a4f565b905092915050565b6000602082019050818103600083015261332d81612ab9565b9050919050565b6000602082019050818103600083015261334d81612af9565b9050919050565b6000602082019050818103600083015261336d81612b5f565b9050919050565b6000602082019050818103600083015261338d81612b9f565b9050919050565b600060208201905081810360008301526133ad81612c05565b9050919050565b600060208201905081810360008301526133cd81612c45565b9050919050565b600060208201905081810360008301526133ed81612cab565b9050919050565b6000602082019050818103600083015261340d81612d11565b9050919050565b6000602082019050818103600083015261342d81612d77565b9050919050565b6000602082019050818103600083015261344d81612ddd565b9050919050565b6000602082019050818103600083015261346d81612e43565b9050919050565b6000602082019050818103600083015261348d81612e83565b9050919050565b600060208201905081810360008301526134ad81612ee9565b9050919050565b600060208201905081810360008301526134cd81612f4f565b9050919050565b600060208201905081810360008301526134ed81612fb5565b9050919050565b6000602082019050818103600083015261350d8161301b565b9050919050565b6000602082019050818103600083015261352d81613081565b9050919050565b6000602082019050818103600083015261354d81613167565b9050919050565b600060208201905061356960008301846131cd565b92915050565b600061010082019050613585600083018b6131cd565b8181036020830152613597818a612a4f565b90506135a660408301896129da565b6135b360608301886129e9565b6135c060808301876129e9565b6135cd60a08301866129e9565b6135da60c08301856129e9565b6135e760e08301846129e9565b9998505050505050505050565b6000604051905081810181811067ffffffffffffffff8211171561361b5761361a613a00565b5b8060405250919050565b600067ffffffffffffffff8211156136405761363f613a00565b5b601f19601f8301169050602081019050919050565b600067ffffffffffffffff8211156136705761366f613a00565b5b601f19601f8301169050602081019050919050565b600081519050919050565b600081519050919050565b600082825260208201905092915050565b600082825260208201905092915050565b600081905092915050565b60006136d382613851565b91506136de83613851565b9250827fffffffffffffffffffffffffffffffffffffffffffffffffffffffffffffffff0382111561371357613712613973565b5b828201905092915050565b600061372982613851565b915061373483613851565b925082613744576137436139a2565b5b828204905092915050565b600061375a82613851565b915061376583613851565b9250817fffffffffffffffffffffffffffffffffffffffffffffffffffffffffffffffff048311821515161561379e5761379d613973565b5b828202905092915050565b60006137b482613851565b91506137bf83613851565b9250828210156137d2576137d1613973565b5b828203905092915050565b60006137e882613831565b9050919050565b60008115159050919050565b6000819050919050565b60007fffffffff0000000000000000000000000000000000000000000000000000000082169050919050565b600073ffffffffffffffffffffffffffffffffffffffff82169050919050565b6000819050919050565b82818337600083830152505050565b60005b8381101561388857808201518184015260208101905061386d565b83811115613897576000848401525b50505050565b60006138a882613851565b915060008214156138bc576138bb613973565b5b600182039050919050565b600060028204905060018216806138df57607f821691505b602082108114156138f3576138f26139d1565b5b50919050565b600061390482613851565b91507fffffffffffffffffffffffffffffffffffffffffffffffffffffffffffffffff82141561393757613936613973565b5b600182019050919050565b600061394d82613851565b915061395883613851565b925082613968576139676139a2565b5b828206905092915050565b7f4e487b7100000000000000000000000000000000000000000000000000000000600052601160045260246000fd5b7f4e487b7100000000000000000000000000000000000000000000000000000000600052601260045260246000fd5b7f4e487b7100000000000000000000000000000000000000000000000000000000600052602260045260246000fd5b7f4e487b7100000000000000000000000000000000000000000000000000000000600052604160045260246000fd5b6000601f19601f8301169050919050565b613a49816137dd565b8114613a5457600080fd5b50565b613a60816137ef565b8114613a6b57600080fd5b50565b613a77816137fb565b8114613a8257600080fd5b50565b613a8e81613805565b8114613a9957600080fd5b50565b613aa581613851565b8114613ab057600080fd5b5056fea264697066735822122083acc24788658cdba4979b1bd9ac89bd0d01b80052c3b836a7ca8c4763650e1364736f6c63430008000033",
  "immutableReferences": {},
  "source": "// SPDX-License-Identifier: MIT\npragma solidity ^0.8.0;\n\nimport \"@openzeppelin/contracts/token/ERC721/extensions/ERC721URIStorage.sol\";\nimport \"@openzeppelin/contracts/utils/Counters.sol\";\nimport \"@openzeppelin/contracts/access/AccessControl.sol\";\nimport \"./interfaces/IERC20.sol\";\nimport \"@openzeppelin/contracts/token/ERC721/IERC721Receiver.sol\";\nimport {SafeMath} from \"./utils/SafeMath.sol\";\n\ncontract NFTRewards is  ERC721URIStorage, IERC721Receiver, AccessControl {\n    using SafeMath for uint256;\n\n    uint256 public tokenCounter; \n    address public Validator;\n\n    struct Diamond {\n        uint256 id;\n        string ipfsHash;\n        address owner;\n        bool authenticate;\n        bool collateralLocked;\n        bool liquidityRemoved;\n        bool reedemDiamond;\n        bool nftLocked;\n    }\n\n    mapping(uint256 => Diamond) public nfts;\n    mapping(address => uint256) public deposit;\n\n    modifier onlyAdmin() {\n        require(\n            hasRole(DEFAULT_ADMIN_ROLE, _msgSender()),\n            'ArthPool: You are not the admin'\n        );\n        _;\n    }\n\n    constructor() ERC721(\"Diamond\", \"NFT\") {\n        tokenCounter = 0;\n        _setupRole(DEFAULT_ADMIN_ROLE, _msgSender());\n        Validator = msg.sender;\n    }\n\n    function createCollectible(\n        string memory tokenURI\n    ) public returns (uint256) {\n        tokenCounter = tokenCounter + 1;\n        uint256 newItemId = tokenCounter;\n\n        _safeMint(msg.sender, newItemId);\n        _setTokenURI(newItemId, tokenURI);\n\n        nfts[newItemId] = Diamond(\n            newItemId,\n            tokenURI,\n            msg.sender,\n            false,\n            false,\n            false,\n            false,\n            false\n        );\n\n        return newItemId;\n    }\n\n    function onERC721Received(address, address, uint256, bytes memory) public virtual override returns (bytes4) {\n        return this.onERC721Received.selector;\n    }\n\n    function supportsInterface(bytes4 interfaceId) public view virtual override(ERC721, AccessControl) returns (bool) {\n        return super.supportsInterface(interfaceId);\n    }\n}",
  "sourcePath": "/Users/miteshpandey/Dungeon-Hunt-Celo/blockchain/src/contracts/TrophyChar.sol",
  "compiler": {
    "name": "solc",
    "version": "0.8.0+commit.c7dfd78e.Emscripten.clang"
  },
  "schemaVersion": "3.4.3",
  "updatedAt": "2021-09-27T13:56:47.805Z",
  "devdoc": {
    "kind": "dev",
    "methods": {
      "approve(address,uint256)": {
        "details": "See {IERC721-approve}."
      },
      "balanceOf(address)": {
        "details": "See {IERC721-balanceOf}."
      },
      "getApproved(uint256)": {
        "details": "See {IERC721-getApproved}."
      },
      "getRoleAdmin(bytes32)": {
        "details": "Returns the admin role that controls `role`. See {grantRole} and {revokeRole}. To change a role's admin, use {_setRoleAdmin}."
      },
      "grantRole(bytes32,address)": {
        "details": "Grants `role` to `account`. If `account` had not been already granted `role`, emits a {RoleGranted} event. Requirements: - the caller must have ``role``'s admin role."
      },
      "hasRole(bytes32,address)": {
        "details": "Returns `true` if `account` has been granted `role`."
      },
      "isApprovedForAll(address,address)": {
        "details": "See {IERC721-isApprovedForAll}."
      },
      "name()": {
        "details": "See {IERC721Metadata-name}."
      },
      "ownerOf(uint256)": {
        "details": "See {IERC721-ownerOf}."
      },
      "renounceRole(bytes32,address)": {
        "details": "Revokes `role` from the calling account. Roles are often managed via {grantRole} and {revokeRole}: this function's purpose is to provide a mechanism for accounts to lose their privileges if they are compromised (such as when a trusted device is misplaced). If the calling account had been granted `role`, emits a {RoleRevoked} event. Requirements: - the caller must be `account`."
      },
      "revokeRole(bytes32,address)": {
        "details": "Revokes `role` from `account`. If `account` had been granted `role`, emits a {RoleRevoked} event. Requirements: - the caller must have ``role``'s admin role."
      },
      "safeTransferFrom(address,address,uint256)": {
        "details": "See {IERC721-safeTransferFrom}."
      },
      "safeTransferFrom(address,address,uint256,bytes)": {
        "details": "See {IERC721-safeTransferFrom}."
      },
      "setApprovalForAll(address,bool)": {
        "details": "See {IERC721-setApprovalForAll}."
      },
      "symbol()": {
        "details": "See {IERC721Metadata-symbol}."
      },
      "tokenURI(uint256)": {
        "details": "See {IERC721Metadata-tokenURI}."
      },
      "transferFrom(address,address,uint256)": {
        "details": "See {IERC721-transferFrom}."
      }
    },
    "version": 1
  },
  "userdoc": {
    "kind": "user",
    "methods": {},
    "version": 1
  }
}